S02B00002F6C696E75782D73646B2F616D333335782D75626F6F742D30342E30362E30302E30332F616D3333F9
S31580800000140000EA14F09FE514F09FE514F09FE554
S3158080001014F09FE514F09FE514F09FE514F09FE5BA
S31580800020A00180800002808060028080C002808003
S315808000302003808080038080E0038080785634121D
S3158080004000008080C81C0900C81C0900F05D0C0077
S3158080005058720900DEC0AD0B390300EB00000FE15A
S315808000601F00C0E3D30080E300F029E1B4D39FE58D
S3158080007007D0CDE30000A0E3FB0300EB0040A0E1C6
S315808000800150A0E10260A0E104D0A0E194004FE29B
S31580800090060050E10090A0032600000A0610A0E129
S315808000A060301FE5032080E00006B0E80006A1E806
S315808000B0020050E1FBFFFF3A80001FE5009046E09A
S315808000C06CA09FE500A08AE05C209FE5002082E00E
S315808000D058309FE5003083E0000092E5090080E09B
S315808000E0041092E5FF7001E2170057E30700000ACB
S315808000F0020057E30000000A060000EA2112A0E110
S3158080010001108AE0041091E5091081E0010000EA7F
S31580800110001090E5091081E0001080E5082082E2D9
S31580800120030052E1EBFFFF3A020000EAC81C090097
S315808001309871090098710900FC001FE5F8101FE589
S315808001400640A0E1040080E0041081E00020A0E366
S31580800150002080E5040080E2010050E1FBFFFF1A69
S31580800160150F07EE9A0F07EE950F07EE14009FE5A1
S315808001705E1F4FE201E080E009E08EE00500A0E1AD
S315808001800610A0E10EF0A0E1480F00000000A0E17B
S315808001900000A0E10000A0E10000A0E10000A0E155
S315808001A054D11FE500E08DE500E04FE104E08DE568
S315808001B013D0A0E30DF069E10FE0A0E10EF0B0E18D
S315808001C048D04DE2FF1F8DE87C211FE50C0092E828
S315808001D048008DE234508DE20E10A0E10F0085E854
S315808001E00D00A0E1180500EB0000A0E10000A0E171
S315808001F00000A0E10000A0E10000A0E10000A0E1F5
S3158080020004D04DE200008DE5BC011FE500E080E56D
S3158080021000004FE104E080E500009DE504D08DE29A
S3158080022048D04DE2FF1F8DE8DC211FE50C0092E867
S3158080023048008DE234508DE20E10A0E10F0085E8F3
S315808002400D00A0E1090500EB0000A0E10000A0E11F
S315808002500000A0E10000A0E10000A0E10000A0E194
S3158080026014D21FE500E08DE500E04FE104E08DE5E6
S3158080027013D0A0E30DF069E10FE0A0E10EF0B0E1CC
S3158080028048D04DE2FF1F8DE83C221FE50C0092E8A6
S3158080029048008DE234508DE20E10A0E10F0085E893
S315808002A00D00A0E1FA0400EB0000A0E10000A0E1CF
S315808002B00000A0E10000A0E10000A0E10000A0E134
S315808002C074D21FE500E08DE500E04FE104E08DE526
S315808002D013D0A0E30DF069E10FE0A0E10EF0B0E16C
S315808002E048D04DE2FF1F8DE89C221FE50C0092E8E6
S315808002F048008DE234508DE20E10A0E10F0085E833
S315808003000D00A0E1EB0400EB0000A0E10000A0E17D
S315808003100000A0E10000A0E10000A0E10000A0E1D3
S31580800320D4D21FE500E08DE500E04FE104E08DE565
S3158080033013D0A0E30DF069E10FE0A0E10EF0B0E10B
S3158080034048D04DE2FF1F8DE8FC221FE50C0092E825
S3158080035048008DE234508DE20E10A0E10F0085E8D2
S315808003600D00A0E1DC0400EB0000A0E10000A0E12C
S315808003700000A0E10000A0E10000A0E10000A0E173
S3158080038034D31FE500E08DE500E04FE104E08DE5A4
S3158080039013D0A0E30DF069E10FE0A0E10EF0B0E1AB
S315808003A048D04DE2FF1F8DE85C231FE50C0092E864
S315808003B048008DE234508DE20E10A0E10F0085E872
S315808003C00D00A0E1D60400EB0000A0E10000A0E1D2
S315808003D00000A0E10000A0E10000A0E10000A0E113
S315808003E094D31FE500E08DE500E04FE104E08DE5E4
S315808003F013D0A0E30DF069E10FE0A0E10EF0B0E14B
S3158080040048D04DE2FF1F8DE8BC231FE50C0092E8A3
S3158080041048008DE234508DE20E10A0E10F0085E811
S315808004200D00A0E1B50400EB80B730400000A0E16C
S315808004300000A0E10000A0E10000A0E10000A0E1B2
S31580800440F34E2DE9301F30EE0030A0E304108DE5A9
S3158080045003C0A0E10350A0E104109DE53123A0E113
S31580800460072002E2022042E2020052E32D00008A47
S315808004708C40A0E1104F40EE101F30EEB8209FE5F3
S31580800480B8709FE5022001E0A221A0E1076001E229
S31580800490077001E0019082E2046086E2A776A0E19F
S315808004A00910A0E100A0E0E3A110B0E101A08AE2FA
S315808004B0FCFFFF1A020019E101A08A12010050E3B5
S315808004C020A06AE20A00001A12BA84E10710A0E12D
S315808004D00490A0E111468BE1564F07EE011051E260
S315808004E0FBFFFF2A012052E20940A0E1F5FFFF2AA7
S315808004F00B0000EA020050E30A00001A12BA84E177
S315808005000710A0E10490A0E111468BE15E4F07EED3
S31580800510011051E2FBFFFF2A012052E20940A0E14F
S31580800520F5FFFF2A9A5F07EE120053E301C08CE243
S3158080053003308312C7FFFF1AFC8EBDE8F81F0000C8
S3158080054000E0FF0FF8402DE90040A0E10160A0E1C6
S31580800550105F30EE075005E2045085E20130A0E35B
S31580800560030052E31355A0E10900000A040052E318
S3158080057000306502004003001D00001A010000EA79
S315808005803E4F07EE054084E0060054E1FBFFFF3ACC
S31580800590170000EA017045E2000017E10700000AB3
S315808005A00420A0E154009FE554109FE5014044E279
S315808005B0742100EB054084E0003065E2044003E06E
S315808005C0060017E10800000A0620A0E134009FE5B6
S315808005D02C109FE56B2100EB003065E2036006E01E
S315808005E0010000EA364F07EE054084E0060054E1BC
S315808005F0FBFFFF3A0030A0E39A3F07EEF880BDE824
S315808006000BA58280C4A482803EA5828010402DE97D
S315808006100100A0E389FFFFEB1040BDE82B0000EAD4
S3158080062010402DE90200A0E384FFFFEB1040BDE877
S31580800630250000EA70402DE90320A0E30050A0E168
S315808006400140A0E1BEFFFFEB0500A0E10410A0E120
S315808006507040BDE81F0000EA70402DE90420A0E3C9
S315808006600050A0E10140A0E1B5FFFFEB0500A0E1CD
S315808006700410A0E17040BDE8150000EA08402DE92D
S315808006800F0000EBE0FFFFEB0030A0E3173F08EEA2
S31580800690163F08EE153F08EE9A3F07EE953F07EE28
S315808006A00880BDE8001081E0EAFFFFEA0030A0E321
S315808006B0153F07EED53F07EE9A3F07EE953F07EE4B
S315808006C01EFF2FE11EFF2FE11EFF2FE11EFF2FE170
S315808006D01EFF2FE11EFF2FE11EFF2FE11EFF2FE160
S315808006E008402DE9820300EB690300EBEEFFFFEB08
S315808006F0700300EBC4FFFFEB0000A0E30880BDE839
S31580800700010050E2FDFFFF1A1EFF2FE101C0A0E32A
S3158080071010402DE91CC2A0E1004090E501C04CE26A
S315808007201CC1C4E113118CE1001080E51080BDE806
S3158080073010402DE900C0A0E3004092E5004004E02F
S31580800740010054E10400000A01C08CE203005CE1F0
S31580800750F8FFFF1A0000A0E31080BDE80100A0E347
S315808007601080BDE80C109FE50C309FE5003081E558
S315808007700000A0E1FEFFFFEA000FE04401000000D8
S3158080078038402DE92C309FE50040A0E3004083E58A
S315808007902B20A0E3082003E5040013E50850A0E1A0
S315808007A014109FE51E9A00EB300085E5204088E591
S315808007B00400A0E13880BDE840000448B80B000002
S315808007C008402DE944309FE5FA1FA0E3930000E0BE
S315808007D0139A00EB38209FE53C3092E50210A0E129
S315808007E0070000EA3C2091E5020053E10330E08176
S315808007F0023083800330E08103306290000083E0A2
S315808008000230A0E1000050E3F5FFFFCA0880BDE812
S31580800810B80B00000000044808402DE92C309FE585
S315808008203C0093E528109FE5FD9900EB302098E504
S31580800830201098E5302098E5002062E0012082E053
S31580800840202088E5300088E5200098E50880BDE88E
S3158080085000000448B80B000010402DE90040A0E15C
S31580800860ECFFFFEB000064E01080BDE808402DE9D6
S31580800870E8FFFFEB0010A0E30880BDE8FA0FA0E355
S315808008801EFF2FE1F0442DE90050A0E10140A0E158
S315808008900260A0E100A095E50610A0E10A00A0E133
S315808008A0DF9900EB960003E00A0053E10070A0E137
S315808008B0F084BD1800A094E50610A0E10A00A0E1AE
S315808008C0D79900EB960000E00A0050E1F084BD18CD
S315808008D0007085E5000094E50610A0E1D09900EBD4
S315808008E0000084E5EAFFFFEA70402DE90050A0E130
S315808008F00140A0E10260A0E10220A0E3E0FFFFEBDF
S315808009000500A0E10410A0E10320A0E3DCFFFFEB5B
S315808009100500A0E10410A0E10520A0E3D8FFFFEB4D
S315808009200500A0E10410A0E10720A0E3D4FFFFEB3F
S315808009300500A0E10410A0E10B20A0E3D0FFFFEB2F
S315808009400500A0E10410A0E10D20A0E3CCFFFFEB21
S315808009500500A0E10410A0E11120A0E3C8FFFFEB11
S31580800960060000EA003095E5A330A0E1003085E5F9
S31580800970003094E5013083E2A330A0E1003084E545
S31580800980003094E5060053E1F5FFFF8A7080BDE86C
S31580800990F0412DE90040A0E10150A0E10260A0E194
S315808009A00370A0E10030A0E3183081E5FA0FA0E360
S315808009B052FFFFEB003094E5003085E5043094E506
S315808009C0043085E5083094E5083085E50C3094E57B
S315808009D00C3085E5103094E5103085E5143094E54B
S315808009E0266CA0E13F6006E2406086E30F7007E2F6
S315808009F0143085E5077486E17D0EA0E3187085E561
S31580800A00F041BDE83DFFFFEA70402DE964509FE5E7
S31580800A100532A0E3003085E5003095E50820A0E327
S31580800A20102083E5003095E5F82082E2182083E562
S31580800A30003095E5012C82E21C2083E5003095E527
S31580800A401220A0E3502083E5003095E50040A0E3A6
S31580800A50784083E5FA0FA0E328FFFFEB001095E549
S31580800A6014009FE5601081E20223A0E30430A0E1B8
S31580800A707040BDE8C5FFFFEAC81C8980E872828025
S31580800A8008309FE5000693E5200EA0E11EFF2FE14A
S31580800A900000E1440C309FE5000693E50002A0E16A
S31580800AA02008A0E11EFF2FE10000E1440000A0E3C2
S31580800AB01EFF2FE10C309FE5400093E5070C00E296
S31580800AC02004A0E11EFF2FE10000E14408309FE56D
S31580800AD0400093E51F0000E21EFF2FE10000E14405
S31580800AE070402DE90250D0E50160D0E50558A0E13F
S31580800AF0065485E10060D0E5B0C19FE5065085E16A
S31580800B000360D0E500409CE5065C85E1005484E581
S31580800B100650D0E50560D0E50558A0E1065485E10C
S31580800B200460D0E500409CE5065085E10760D0E50D
S31580800B30065C85E10D0051E3045484E53300009A18
S31580800B400A50D0E50960D0E50558A0E1065485E1D4
S31580800B500860D0E500409CE5065085E10B60D0E5D5
S31580800B60065C85E1085484E50E50D0E50D60D0E5BD
S31580800B700558A0E1065485E10C60D0E500409CE5EF
S31580800B80065085E10F60D0E5065C85E11A0051E369
S31580800B900C5484E51D00009A1240D0E51150D0E5B2
S31580800BA00448A0E1054484E11050D0E500109CE51E
S31580800BB0054084E11350D0E5054C84E1104481E5FD
S31580800BC01640D0E51550D0E50448A0E1054484E17F
S31580800BD01450D0E500109CE5054084E11750D0E59F
S31580800BE0054C84E1144481E500109CE51AC0D0E56B
S31580800BF01940D0E50CC8A0E104C48CE11840D0E54A
S31580800C001B00D0E504C08CE1000C8CE1180481E5E2
S31580800C1098109FE5000091E518C490E501C88CE3A3
S31580800C20000091E518C480E500C091E57C009FE5D1
S31580800C3018C09CE501001CE3FAFFFF0A001090E5CE
S31580800C4018C091E501C08CE3001090E518C081E55D
S31580800C50001891E5010C11E31200000A001090E55E
S31580800C60001891E51F1001E2001082E50010A0E3D4
S31580800C7001C0A0E1050000EA00C090E522CD8CE2AB
S31580800C8001C09CE701C083E7041081E205C0A0E132
S31580800C90004092E501508CE204005CE1F5FFFF3A6A
S31580800CA00000A0E37080BDE80000E0E37080BDE8CE
S31580800CB0CC1C8980031000E27F1681E30F1881E3C4
S31580800CC02C309FE5002093E5201082E51C1092E56C
S31580800CD0011081E3002093E51C1082E5802092E557
S31580800CE00120C2E3003093E50000A0E3802083E505
S31580800CF01EFF2FE1CC1C898024309FE5002093E560
S31580800D00101092E5021081E3002093E5101082E5B1
S31580800D10002093E5142092E5010012E3FBFFFF0A91
S31580800D201EFF2FE1CC1C898008209FE508309FE537
S31580800D30002083E5EFFFFFEA00000848CC1C89800D
S31580800D40000080801EFF2FE10C60A0E144209FE59B
S31580800D5018301FE5034042E004004FE02CD09FE529
S31580800D602C509FE5025045E0050040E000A0A0E3BE
S31580800D70030110E2020150E30100001A01A0A0E302
S31580800D80FFFFFFEA0A00A0E1C69300EB06F0A0E130
S31580800D90FCB73040600D8080480D8080840D8080D7
S31580800DA0BF5E2DE9300F30EE073410E2A33BA0E121
S31580800DB01B00000A00A0A0E3AA208AE03012A0E1EE
S31580800DC0071001E2020051E3120000BA10AF40EE34
S31580800DD00020A0E3952F07EE101F30EE072001E25A
S31580800DE0042082E270409FE5A14114E0145F6FE1A8
S31580800DF068709FE5A17617E00490A0E119B58AE135
S31580800E0017B28BE156BF07EE019059E2FAFFFFAA2F
S31580800E10017057E2F7FFFFAA02A08AE20A0053E137
S31580800E20E4FFFFCA00A0A0E310AF40EE95AF07EEC7
S31580800E30BF9EBDE807402DE9303F11EE023083E347
S31580800E40303F01EE0E80BDE807402DE9303F11EE40
S31580800E500230C3E3303F01EE0E80BDE8FF03000021
S31580800E60FF7F000008402DE91C009FE53E1F00EBB8
S31580800E700110A0E314009FE58D3900EB10009FE5FB
S31580800E80391F00EB0000A0E30880BDE870A5828052
S31580800E90A08601009FF2828008402DE90C109FE594
S31580800EA00C009FE5371F00EB0000A0E30880BDE8BB
S31580800EB09074828078A5828010402DE940D04DE262
S31580800EC038009FE50D10A0E14020A0E3451A00EB95
S31580800ED0000050E30840A0E124009FD5030000DA9B
S31580800EE00D00A0E10010A0E30A20A0E3DA7600EBF3
S31580800EF0080084E50000A0E340D08DE21080BDE844
S31580800F007FA5828000C201001EFF2FE11EFF2FE198
S31580800F101EFF2FE11EFF2FE11EFF2FE11EFF2FE117
S31580800F201EFF2FE11EFF2FE11EFF2FE1002098E597
S31580800F300211A0E3101082E5002098E5383098E50C
S31580800F40143082E51EFF2FE10080A0E108402DE964
S31580800F50004098E5043098E50150A0E1013083E3B4
S31580800F60043088E5C4309FE5002093E5C0309FE556
S31580800F70002083E5F80000EB6C9300EB0319A0E377
S31580800F80030945E2B01F00EBA8009FE5F61E00EB43
S31580800F90EC4200EBA0009FE5F31E00EB0400A0E18D
S31580800FA07C4000EB192400EB90009FE5004098E59B
S31580800FB03B1A00EB3C7300EB040084E5713400EB54
S31580800FC0E92400EB501F00EBC19300EB400100EB5E
S31580800FD0460100EB68009FE5311A00EB000050E384
S31580800FE00400000A0010A0E31020A0E39A7600EBAC
S31580800FF050309FE5000083E54C009FE5281A00EB82
S31580801000001050E20200000A40009FE58020A0E3A5
S31580801010458A00EBB09300EB34009FE5D21E00EB4F
S31580801020000098E5F38500EB192F00EBFDFFFFEAC2
S3158080103050008080D01C898088A5828090A58280FF
S3158080104098A582809FA58280B01A8380A8A58280F9
S31580801050AC538C80B1A5828008402DE904009FE541
S31580801060C11E00EBFEFFFFEAB9A5828080402DE994
S31580801070E4809FE57820A0E30800A0E10010A0E34B
S31580801080997400EBD4209FE5D4409FE5002092E5BB
S315808010903C2088E5030000EA37FF2FE1000050E31B
S315808010A00000000AEBFFFFEB0470B4E5000057E315
S315808010B0F8FFFF1A384098E5024184E2014944E20C
S315808010C02448A0E10448A0E14C4088E53C2098E58E
S315808010D0044062E0FF4EC4E30F40C4E3036944E208
S315808010E0905046E2182046E2002088E5405088E508
S315808010F0002098E5083098E5A06046E2003082E5D9
S31580801100B89200EB003098E558009FE514A093E5EF
S31580801110951E00EB0A00A0E10710A0E148209FE51C
S31580801120C86D00EB44309FE5344088E5003093E518
S315808011300810A0E1043063E0446088E57820A0E36D
S31580801140483088E50500A0E1897400EB0600A0E1BF
S315808011500510A0E10420A0E1C7FBFFEB80B73040FB
S315808011604C008080D4178380E3A58280DAE58280F4
S315808011704000808000C098E5003098E50D10A0E1A1
S31580801180142093E510309CE5011B41E2032082E028
S31580801190022061E0247200EAF04E2DE9004098E555
S315808011A00070A0E17C019FE50350A0E108A094E552
S315808011B0BB1900EB800057E3000057130060A0E165
S315808011C00070A0030170A0135400001A58019FE597
S315808011D0B31900EB000050E30600000A0710A0E177
S315808011E01020A0E31C7600EB00A0A0E10A10A0E10D
S315808011F038019FE5631E00EB0F00A0E3A32E00EB72
S315808012000C9094E528319FE528219FE50500A0E391
S31580801210607095E5090089E80030A0E3083089E5AB
S315808012200C3089E5103089E5182089E50420A0E313
S31580801230142089E5102094E5243089E2202089E5F0
S31580801240142094E5000056E31C2089E5E8209FE57C
S31580801250003082E51500000A06B0A0E10120D6E4C0
S31580801260200052E3FBFFFF0A000052E30F00000AD2
S31580801270C8209FE50B00A0E1042083E5907300EBF6
S31580801280B4609FE50D0080E22001A0E1240089E51D
S31580801290000096E50B10A0E1080080E2367300EB33
S315808012A0003096E5002093E5023183E0003086E5C4
S315808012B0642095E5000052E30C00000A680095E5FD
S315808012C0000050E30900000A6C109FE570E09FE5FE
S315808012D0003091E504C0A0E3082083E5002062E029
S315808012E0005083E80C2083E5103083E2003081E56E
S315808012F044309FE50050A0E3003093E544009FE5AD
S31580801300045083E5005083E51E1E00EBF3FCFFEB63
S315808013100500A0E10A10A0E10C2094E537FF2FE1BB
S315808013200100A0E3F08EBDE8EBA58280F4A58280E3
S31580801330FBA582800100415402004154D41C8980DF
S3158080134009004154050042541FA682801EFF2FE16A
S315808013500000A0E30010E0E3D1FCFFEA00009FE5F7
S31580801360011E00EA36A6828008D04DE20030A0E3D6
S31580801370020000EA0000A0E104309DE5013083E2AE
S3158080138004308DE504309DE5630053E3F8FFFFDA92
S3158080139008D08DE21EFF2FE1040050E3F8402DE94E
S315808013A00050A0E12400001A107F11EE017017E230
S315808013B02100001A4C4098E50460A0E1AEFCFFEB6A
S315808013C0073AA0E1C13E83E3017087E2023083E37E
S315808013D0010A57E3043084E4F8FFFF1A4C2098E52D
S315808013E0000098E5042042E2101090E5140090E514
S315808013F0213AA0E1001081E0211AA0E1032182E058
S31580801400040000EA030AA0E1C10E80E30E0080E3B7
S315808014100400A2E5013083E2010053E1F8FFFF3A40
S31580801420106F02EE0030E0E3103F03EECDFFFFEB5E
S31580801430104F11EE014084E3104F01EE104F11EEF4
S31580801440C8FFFFEB055084E1105F01EEF880BDE8B0
S31580801450040050E338402DE90040A0E10400001AE2
S31580801460103F11EE040013E33880BD086BFCFFEB60
S31580801470014084E2105F11EEBAFFFFEB0440C5E1C4
S31580801480104F01EE3880BDE81EFF2FE1010AA0E3F0
S31580801490C0FFFFEA010AA0E3ECFFFFEA103F11EEEE
S315808014A0010A13E30000A0030100A0131EFF2FE1B1
S315808014B00400A0E3B7FFFFEA0400A0E3E3FFFFEAAE
S315808014C0103F11EE040013E30000A0030100A01377
S315808014D01EFF2FE1402098E50C309FE5082082E2B0
S315808014E0002083E50000A0E31EFF2FE1540080806A
S315808014F01EFF2FE10000A0E31EFF2FE108402DE9AB
S3158080150000009FE5977700EB53A6828070402DE997
S3158080151088D04DE20040A0E104119FE508008DE26D
S315808015208020A0E3927300EB303094E53C1094E504
S3158080153000308DE52C3094E5382094E504308DE5B7
S31580801540E0009FE5343094E5405094E58D1D00EBB6
S31580801550281094E5242094E5203094E5C8009FE502
S31580801560881D00EB103094E51C1094E500308DE5E5
S31580801570182094E5143094E5B0009FE5811D00EB3A
S31580801580003094E50C1094E500308DE5082094E5D4
S31580801590043094E598009FE57A1D00EB010115E300
S315808015A07A20A0035A20A013020215E36330A00399
S315808015B04330A0130F6205E2010215E37610A00383
S315808015C05610A013000056E300108DE564009FE559
S315808015D06E10A0A34E10A0B36A1D00EB403094E538
S315808015E054C09FE554209FE5800013E30C10A00132
S315808015F00210A01188008DE2400013E31F3003E2C1
S31580801600033180E038009FE50C20A00100008DE545
S31580801610803013E52C009FE55A1D00EB88D08DE243
S315808016207080BDE80473828066A68280ABA6828045
S31580801630CFA68280FFA682802FA78280390B838067
S3158080164065A9828004C482803FA7828010402DE96C
S315808016500040A0E110009FE54A1D00EB0400A0E158
S31580801660A9FFFFEB1040BDE8A3FFFFEA5EA782805B
S3158080167010402DE90040A0E110009FE5411D00EB60
S315808016800400A0E1A0FFFFEB1040BDE89AFFFFEACF
S3158080169075A7828010402DE90040A0E110009FE56B
S315808016A0381D00EB0400A0E197FFFFEB1040BDE8FA
S315808016B091FFFFEA89A7828010402DE90040A0E152
S315808016C010009FE52F1D00EB0400A0E18EFFFFEB4D
S315808016D01040BDE888FFFFEA99A7828010402DE9F7
S315808016E00040A0E110009FE5261D00EB0400A0E1EC
S315808016F085FFFFEB1040BDE87FFFFFEAA5A78280CC
S3158080170010402DE90040A0E110009FE51D1D00EBF3
S315808017100400A0E17CFFFFEB1040BDE876FFFFEA86
S31580801720AFA7828010402DE90040A0E110009FE5A0
S31580801730141D00EB0400A0E173FFFFEB1040BDE8B1
S315808017406DFFFFEAB4A7828008402DE91C009FE5E3
S31580801750051D00EB18009FE5747300EB64FFFFEBBB
S315808017600000A0E3FEFBFFEB0000A0E30880BDE85D
S31580801770B3A8828050C300001F402DE9004098E5C1
S31580801780F8109FE5082094E5F4009FE5FD1C00EBAA
S315808017900C2094E5EC109FE5E4009FE5F91C00EBB6
S315808017A0E4109FE50020A0E3D4009FE5F51C00EBC4
S315808017B0102094E5D4109FE5C4009FE5F11C00EBD2
S315808017C0142094E5C8109FE5B4009FE5ED1C00EBDE
S315808017D0C0109FE504008DE2E77100EB04008DE286
S315808017E02F1800EB000050E3AC209FE504108DE2BB
S315808017F00020A011A4009FE5E21C00EB041084E287
S315808018009C009FE5DF1C00EB001094E594009FE52B
S31580801810DC1C00EB90109FE54C2098E560009FE5EE
S31580801820D81C00EB84109FE5342098E550009FE516
S31580801830D41C00EB78109FE5482098E540009FE512
S31580801840D01C00EB6C109FE5402098E530009FE52A
S31580801850CC1C00EB60109FE5442098E520009FE536
S31580801860C81C00EB54109FE5182098E510009FE572
S31580801870C41C00EB0000A0E310D08DE21080BDE890
S31580801880DCA88280CCA88280E8A88280F4A8828026
S31580801890FEA8828007A982800FA98280C2A88280C2
S315808018A017A9828022A9828036A982804CA98280CB
S315808018B055A982805FA9828069A9828070A98280E9
S315808018C07AA9828008402DE90030A0E10100A0E15C
S315808018D00210A0E133FF2FE10880BDE8010052E3CA
S315808018E070402DE90240A0E1010000CA7040BDE849
S315808018F0881B00EA040093E51020A0E30010A0E393
S31580801900045083E2547400EB0060A0E10610A0E1ED
S315808019102C009FE59B1C00EB011044E20520A0E192
S315808019200600A0E1E6FFFFEB004050E20010A0E158
S315808019300140A0130C009FE5921C00EB0400A0E1FF
S315808019407080BDE8A6A98280CEA98280003CA0E175
S31580801950FF2C00E2203C83E1023483E1FF0800E231
S31580801960200483E11EFF2FE108402DE914009FE5C6
S31580801970CB1700EB0310A0E37A2600EB000050E241
S315808019800100A0130880BDE895AA8280800050E37C
S315808019900000501310402DE90700001A604093E53F
S315808019A01C009FE50410A0E1761C00EB0F00A0E3ED
S315808019B0B62C00EB000098E534FF2FE10100A0E310
S315808019C01080BDE89DAA8280800050E3000050137D
S315808019D0FF4E2DE90150A0E10270A0E10340A0E115
S315808019E00000A0030100A0133F00001A006093E569
S315808019F02230D3E5040053E30060A0110700001A6B
S31580801A000600A0E108308DE20110A0E30C208DE273
S31580801A10732A00EB08309DE5000053E30060A00345
S31580801A20020055E3200000DA07B0A0E10290A0E32F
S31580801A3000A0A0E308009BE5A17100EB019089E2FC
S31580801A400AA080E0050059E101A08AE204B08BE219
S31580801A50F7FFFFBA0A00A0E1C21D00EB02B0A0E347
S31580801A6000A0A0E10090A0E32030A0E3030000EA7C
S31580801A70099080E00930CAE7047087E2019089E2A4
S31580801A80081097E509008AE004308DE501B08BE285
S31580801A90397100EB080097E5897100EB05005BE101
S31580801AA004309DE5F1FFFFBA040000EA44009FE51B
S31580801AB07B1700EB000050E33CA09FE500A0A011BF
S31580801AC0604094E534009FE50410A0E12D1C00EB76
S31580801AD00F00A0E36D2C00EB0610A0E1000098E5D6
S31580801AE014209FE50A30A0E134FF2FE10100A0E3B6
S31580801AF010D08DE2F08EBDE8EBA5828004C4828012
S31580801B00D6AA828008402DE98FFFFFEB0C309FE5B7
S31580801B10003063E0000073E20300A0E00880BDE847
S31580801B205619052738402DE90040A0E10410A0E130
S31580801B3094009FE5131C00EB0400A0E13D2B00EB95
S31580801B40010050E30050A0E11A00001A7C009FE556
S31580801B50051C00EB000094E5E9FFFFEB000050E3F5
S31580801B606C009F050400000A0400A0E1EF2900EBC9
S31580801B70000050E30200001A58009FE5FA1B00EB34
S31580801B800F0000EA0400A0E1A12A00EB48009FE54F
S31580801B90F51B00EB0400A0E1F82900EB000050E380
S31580801BA038009F05F4FFFF0A34009FE5EE1B00EBAB
S31580801BB00050A0E3020000EA28009FE5EA1B00EBC4
S31580801BC00150A0E30500A0E13880BDE81FAB82808C
S31580801BD040AB828057AB82806CAB828084AB8280C4
S31580801BE09FAB8280B0AB8280B4AB8280010052E3AF
S31580801BF0F0412DE90240A0E10370A0C10050A0C34E
S31580801C000160A0C3030000CA38309FE5000093E5D9
S31580801C10F041BDE8C2FFFFEA0010A0E31020A0E3F8
S31580801C200400B7E58C7300EBBDFFFFEB016086E2B5
S31580801C30000050E30150A013040056E1F5FFFFBA7F
S31580801C400500A0E1F081BDE8B01A83803EFFFFEAFF
S31580801C50F34E2DE90060A0E13000DDE50190A0E142
S31580801C602CB0DDE502A0A0E128409DE534509DE5BD
S31580801C7038709DE504308DE5592A00EB00005BE3E2
S31580801C800010A0E10200000A01005BE32600001A32
S31580801C90120000EA060054E10A0054110200001A7C
S31580801CA0EC009FE5B71B00EB060000EAE4009FE5A9
S31580801CB0B41B00EB0400A0E10A10A0E104209DE59E
S31580801CC00138A0E3202A00EB04309DE5C8009FE51B
S31580801CD0033084E0003085E5A31B00EB170000EA23
S31580801CE0B8009FE5A71B00EB04308DE20400A0E1DD
S31580801CF00215A0E30A20A0E1C36B00EB000050E34D
S31580801D0004309D0503308400003085050B00000A71
S31580801D108C009FE5941B00EB000057E31A00000AB5
S31580801D200500E0E3D92B00EB170000EA74009FE5FD
S31580801D300B10A0E1931B00EB0200E0E3130000EAA6
S31580801D40001095E50400A0E1011064E00111A0E196
S31580801D5053FAFFEB40009FE5831B00EB000057E3BF
S31580801D600100000A0700A0E3C82B00EB090054E1BC
S31580801D700000A0230500002A003095E5060053E187
S31580801D800100E0830000A093000000EA0000E0E309
S31580801D90FC8EBDE8CBAB8280DAAB8280B0AB8280B2
S31580801DA0EDAB828006AC828057AC8280F34E2DE983
S31580801DB030439FE50190A0E100A0A0E10010A0E360
S31580801DC00400A0E10260A0E14B2FA0E3467100EB06
S31580801DD014039FE5A32900EB840084E58C0084E2CC
S31580801DE0BD6E00EBA92900EB0050A0E1B32900EB82
S31580801DF00510A0E10020A0E18C0084E2C06E00EB9B
S31580801E008C0084E2DAFCFFEB8C0084E2906F00EB3E
S31580801E10010059E3D4329FD5004093D5040000DA7F
S31580801E20040096E50010A0E31020A0E30A7300EB7F
S31580801E300040A0E10100A0E3942B00EB0400A0E128
S31580801E40822A00EB9CB29FE50070A0E354708BE5FC
S31580801E5050708BE50040A0E10050A0E1752A00EB30
S31580801E60010050E35900001A0410A0E180029FE52A
S31580801E70441B00EB000094E521FFFFEB000050E35C
S31580801E8084709BE50300001A68029FE5361B00EB91
S31580801E900000E0E3230000EA0200A0E37B2B00EB56
S31580801EA00400A0E1212900EB000050E30300001A22
S31580801EB044029FE52C1B00EB0100E0E3190000EA59
S31580801EC00300A0E3712B00EB0400A0E1D02900EB96
S31580801ED0000057E30B00000A20029FE5221B00EBDF
S31580801EE00400A0E1252900EB000050E30300001ADE
S31580801EF00C029FE5231B00EB0200E0E3090000EA69
S31580801F0000029FE5181B00EB0400A0E35F2B00EB2B
S31580801F101D10D4E5020051E30500000AE8019FE523
S31580801F20181B00EB0300E0E3582B00EB0050A0E386
S31580801F302C0000EA0500A0E3542B00EB1E30D4E58C
S31580801F40A0719FE5020053E30A00000A040053E370
S31580801F500200000A010053E30C00001A050000EA23
S31580801F600400A0E10010A0E3502087E2543087E28D
S31580801F701B2900EB0A0000EA403084E20C0094E5DD
S31580801F80503087E530FFFFEB540087E5040000EA98
S31580801F9078019FE500109AE5FA1A00EB0400E0E3E9
S31580801FA0E0FFFFEA3C719FE50410A0E1040087E230
S31580801FB04020A0E30B7100EB0130A0E3004087E571
S31580801FC0443087E50600A0E3302B00EB050000EA6D
S31580801FD000109AE538019FE5EA1A00EB6B00E0E392
S31580801FE02A2B00EB0750A0E1F8709FE5543097E5E7
S31580801FF0000053E31C019F051700000A0500A0E13D
S315808020000C2A00EB010050E30040A0E108019F15F7
S315808020101100001A1EA0D5E55DA0C7E51F30D5E565
S315808020205C30C7E51CB0D5E55EB0C7E50C0095E5AC
S3158080203005FFFFEB403085E2003083E04C3087E55A
S31580802040100095E540FEFFEB443097E5580087E524
S31580802050000053E30300001A090000EAC21A00EB6D
S315808020600100A0E31E0000EA180097E536FEFFEB2C
S3158080207002005AE304005A13600087E50200000AD2
S31580802080120000EA94009FE50D0000EA05005BE3FC
S315808020900E00001A643087E200308DE5683087E272
S315808020A004308DE50900A0E10610A0E10720A0E1BB
S315808020B00230A0E3E82900EB000050E30300000A29
S315808020C05C009FE5A81A00EB0400A0E1040000EA0A
S315808020D010309FE50120A0E3485083E5882083E582
S315808020E00000A0E3FC8EBDE8D81C89807AAC828013
S315808020F0B01A838081AC82805AAB82806FAB8280BB
S3158080210084AB8280A2AB8280B0AB8280B3AC82808B
S31580802110D2AC8280F3AC828016AD828036AD8280EE
S3158080212059AD82807DAD82801EFF2FE1F0442DE9FE
S3158080213014129FE530D04DE20060A0E10250A0E10C
S31580802140040093E50720A0E30370A0E1044083E2C6
S315808021503F1900EB000050E30700000A0CA090E5D1
S3158080216001005AE30800001A0600A0E1011045E24A
S315808021700420A0E10CFFFFEB010000EA0600A0E14D
S31580802180641900EB0050A0E16C0000EABC419FE539
S31580802190883094E50A0053E1020000BAB0019FE5D9
S315808021A0781A00EBF4FFFFEA03308AE1883084E511
S315808021B05E20D4E59C319FE510005AE3026193E767
S315808021C03A00000A040000CA02005AE30900000AA5
S315808021D004005AE35800001A1B0000EA40005AE3C4
S315808021E04400000A80005AE34C00000A20005AE32B
S315808021F05100001A360000EA583094E5480084E29F
S3158080220000308DE55C30D4E504308DE55D30D4E5F5
S3158080221008308DE52C308DE20C308DE50030A0E3E2
S3158080222010308DE50F0090E888FEFFEB005050E27D
S315808022304200001A581094E52C209DE58C0084E29B
S31580802240022061E0F86D00EB3C0000EA641094E5C2
S31580802250682094E5743084E200308DE58C0084E2D9
S31580802260022061E0703084E2072A00EB005050E261
S315808022703200001A702094E518008DE2D8109FE510
S315808022802F7400EB18108DE2D0009FE5A31400EB2D
S3158080229018008DE2C0109FE5742094E5287400EBC9
S315808022A018108DE2B8009FE59C1400EB230000EAAD
S315808022B00510A0E10A00A0E10720A0E10430A0E19A
S315808022C036FF2FE1005050E298009F151B00000AD0
S315808022D0100000EA0510A0E10A00A0E10720A0E135
S315808022E00430A0E136FF2FE1005050E278009F1540
S315808022F01200000A070000EA0510A0E10A00A0E1AA
S315808023000720A0E10430A0E136FF2FE1005050E2A3
S315808023100A00000A54009FE51A1A00EB070000EABB
S3158080232073FCFFEB7FFFFFEB0A00A0E10510A0E1C5
S315808023300720A0E10430A0E136FF2FE10050A0E322
S315808023400500A0E130D08DE2F084BDE8FC17838063
S31580802350D81C8980A2AD828084738280CCAD8280B5
S31580802360D0AD8280DDAD8280E8AD82800AAE82800B
S3158080237028AE8280F04E2DE9010052E340D04DE2B6
S315808023800350A0E10030A0E30070A0E10190A0E1BD
S315808023900260A0E13C308DE5100000DA040095E50E
S315808023A038108DE21020A0E3AB7100EB38309DE5CC
S315808023B00030D3E53A0053E3000053130700000A48
S315808023C0230053E30500000A0700A0E10910A0E17D
S315808023D00620A0E10530A0E153FFFFEB7E0000EAF6
S315808023E00700A0E10610A0E10520A0E16EFEFFEBCC
S315808023F0000050E37700001A3DFCFFEBE0419FE54B
S3158080240000B0A0E1583094E5480084E200308DE544
S315808024105C30D4E504308DE55D30D4E508308DE5DB
S315808024203C308DE20C308DE50130A0E310308DE5B7
S315808024300F0090E805FEFFEB000050E31D0000AA28
S31580802440010070E30E00000A020070E31200001A99
S31580802450443094E5000053E30500000A2230D4E539
S31580802460040053E31300001A78019FE5BE1900EB40
S31580802470100000EA70019FE5BB1900EB7000E0E375
S31580802480022A00EB0700A0E10910A0E10620A0E166
S315808024900530A0E1ABFCFFEB060000EA030070E3A9
S315808024A00400001A00005BE30000000A0FFCFFEBCB
S315808024B00600E0E3380000EA24A19FE53C209DE504
S315808024C058109AE58C008AE2022061E0566D00EB16
S315808024D05D30DAE50A40A0E1010053E31C00001A72
S315808024E000005BE30000000A00FCFFEBFC009FE538
S315808024F0EB1400EB000050E30D00000AF0109FE51E
S31580802500C96E00EB007050E20900001AD0309FE55A
S31580802510E0109FE5542093E518008DE2887300EBE8
S31580802520D4009FE518108DE2FC1300EB0700A0E134
S31580802530290000EA600094E503FDFFEB041085E244
S315808025400030A0E1010046E233FF2FE10000A0E3E6
S31580802550210000EA0800A0E3CC2900EB5E20DAE5C2
S3158080256098309FE5024193E7000054E30C00001AFF
S3158080257000005BE30000000ADCFBFFEB60409FE528
S315808025805E00D4E50A2800EB5E20D4E50010A0E149
S315808025906C009FE57B1900EB0700E0E3BB2900EB2D
S315808025A00C0000EADFFEFFEB0610A0E10520A0E12B
S315808025B00A30A0E10000A0E334FF2FE10800E0E3C9
S315808025C0B22900EB0700A0E10910A0E10620A0E176
S315808025D00530A0E15BFCFFEB0100A0E340D08DE2FB
S315808025E0F08EBDE8D81C898047AE828081AE82809D
S315808025F0C8AE828010158380D2AE8280D6AE82802D
S3158080260084738280DFAE828073402DE90050A0E1A2
S3158080261054009FE50160A0E1A11400EB003050E2F8
S315808026200300A0010F00000A40109FE57E6E00EB3C
S31580802630004050E20000A0130A00001A30309FE567
S3158080264030009FE5001093E500608DE504408DE5C0
S315808026504C1900EB0500A0E10410A0E10120A0E365
S315808026600D30A0E142FFFFEB7C80BDE8C8AE828062
S315808026700DAF8280B01A838011AF828010402DE9A1
S3158080268044109FE50040A0E1676E00EB000050E3B8
S315808026900200A0031080BD080400A0E12C109FE5F5
S315808026A0616E00EB000050E30500000A0400A0E1A3
S315808026B01C109FE55C6E00EB000050E30000E01389
S315808026C01080BDE80100A0E31080BDE8C3B282809F
S315808026D0390B838065A9828000009FE5221900EAF4
S315808026E0C9B28280010052E310402DE90E00000AB3
S315808026F0020052E31500001A040093E5DEFFFFEB2B
S31580802700010050E30500000A020050E30500000A3C
S31580802710000050E30400001A5DFBFFEB020000EA34
S3158080272059FBFFEB000000EAEAFFFFEB5AFBFFEB69
S3158080273020309FE5000050E31C109FE51C009FE53C
S315808027400310A0110F1900EB0000A0E31080BDE8F4
S315808027501040BDE8EF1700EAA2E68280F3B282805D
S31580802760F7B2828000009FE5FF1800EA10B382806E
S31580802770010052E310402DE90E00000A020052E368
S315808027801500001A040093E5BBFFFFEB010050E3C0
S315808027900500000A020050E30500000A000050E3AD
S315808027A00400001A43FBFFEB020000EA3FFBFFEBCD
S315808027B0000000EAEAFFFFEB40FBFFEB20309FE55D
S315808027C0000050E31C109FE51C009FE50310A011BC
S315808027D0EC1800EB0000A0E31080BDE81040BDE857
S315808027E0CC1700EAA2E68280F3B282803AB38280F6
S315808027F0F7462DE9282E00EB0050A0E190009FE55A
S31580802800D91800EB8C709FE5004095E588A09FE500
S315808028101B0000EA342014E5346044E2010012E3B0
S315808028202E10A0034910A013020012E32E30A003BD
S315808028304F30A013000052E30A008DE85C009FE5CC
S31580802840081086E22E30A0A35330A0B3CD1800EBBB
S315808028500090A0E3073099E7060053E10200001A52
S315808028603C009FE50A1099E7C61800EB049089E240
S315808028700C0059E3F6FFFF1A0A00A0E3B31800EBB9
S31580802880004094E5050054E1E1FFFF1A0000A0E3D3
S31580802890FE86BDE838B482809C248980501F8380E0
S315808028A054B48280B2E38280F0442DE90170A0E343
S315808028B00240A0E103A0A0E10760A0E1110000EA48
S315808028C0010056E30450BAE52000A0C3080000CA80
S315808028D0080000EA5C0050E3015085E20400001A9B
S315808028E00030D5E5630053E3015085020070A00374
S315808028F00000000A951800EB0000D5E5000050E343
S31580802900F3FFFF1A016086E2040056E1EBFFFFBA0F
S31580802910000057E30100000A0A00A0E38B1800EB51
S315808029200000A0E3F084BDE8010052E308402DE971
S315808029300030A0D3040000DA040093E50010A0E301
S315808029400A20A0E3447000EB0030A0E10100E0E3C0
S31580802950000063E00880BDE8F04E2DE9032042E266
S3158080296070D04DE20340A0E1030052E302F19F97CD
S31580802970260000EA842980809C298080C0298080E6
S31580802980E029808084029FE5C51300EB000050E338
S3158080299081B4A0030100001A040000EA0C0093E5CC
S315808029A00010A0E31020A0E32B7000EB00B0A0E124
S315808029B05C029FE5BA1300EB0050A0E1050000EAB7
S315808029C00C0093E50010A0E31020A0E3227000EBBA
S315808029D0105094E500B0A0E10090A0E30D0000EADD
S315808029E00C0093E50010A0E31020A0E31A7000EBA2
S315808029F00010A0E300B0A0E11020A0E3140094E5CD
S31580802A00105094E5147000EB0090A0E1010000EA7C
S31580802A10401700EB7B0000EA000055E3F4019F0538
S31580802A201800000A6C108DE21020A0E3080094E55F
S31580802A30097000EB0070A0E10710A0E1040094E526
S31580802A40223000EB000050E30C008DE50500001A73
S31580802A50C4019FE5041094E50720A0E1491800EBA6
S31580802A600100A0E3670000EA6C009DE50030D0E5B8
S31580802A70000053E30160A0030B00000A3A0053E391
S31580802A800200000A94019FE5371800EBF3FFFFEA06
S31580802A90010080E20010A0E31020A0E36C008DE5A9
S31580802AA0ED6F00EB006050E21B00000A0610A0E18B
S31580802AB00C009DE514208DE2A93000EB000050E3E8
S31580802AC05C019F150610A0110800001A40A08DE2B7
S31580802AD00A00A0E14C119FE52020A0E35C6D00EB0D
S31580802AE0000050E30300000A3C019FE50A10A0E144
S31580802AF0241800EBD9FFFFEA20308DE204308DE583
S31580802B000510A0E1042094E50730A0E11C019FE533
S31580802B1000608DE51B1800EB040000EA10019FE53C
S31580802B200510A0E1042094E50730A0E1151800EB9C
S31580802B300C009DE50610A0E1816000EB000050E36B
S31580802B40F0009F050300000A4B6000EB000050E315
S31580802B500500001AE0009FE5041094E50720A0E1B7
S31580802B600630A0E1071800EB160000EA0500A0E118
S31580802B70E35F00EB00A050E2030000AA0510A0E10D
S31580802B80B8009FE5FF1700EB0E0000EA000059E3CE
S31580802B900A00591109A0A0310B00A0E10A10A0E11A
S31580802BA0296000EB0A0050E10090A0E10700000A4E
S31580802BB08C009FE50510A0E1042094E50730A0E114
S31580802BC000608DE5EF1700EBF25F00EBA3FFFFEA75
S31580802BD0F05F00EB6C309FE50910A0E100B083E5E3
S31580802BE064009FE5E71700EB60109FE50920A0E170
S31580802BF060008DE2D27100EB54009FE560108DE21B
S31580802C00461200EB0000A0E370D08DE2F08EBDE826
S31580802C109FA58280A8A58280F5B4828032B6828084
S31580802C2058B6828011B5828029B5828030B58280FF
S31580802C3065B5828095B58280BAB58280DAB5828024
S31580802C4007B6828048B98280B01A83801DB682801A
S31580802C502CB68280D6AE8280020052E3F3442DE980
S31580802C600240A0E10350A0E1010000CAA91600EB52
S31580802C703B0000EA080093E504108DE21020A0E373
S31580802C80756F00EB0070A0E10710A0E1040095E568
S31580802C908E2F00EB00A050E20400001A041095E508
S31580802CA00720A0E1BC009FE5B61700EB080000EA8C
S31580802CB004009DE50030D0E5000053E30160A00369
S31580802CC00B00000A3A0053E30300000A98009FE550
S31580802CD0A51700EB0100A0E3210000EA010080E255
S31580802CE00010A0E31020A0E304008DE55A6F00EB6E
S31580802CF00060A0E1040054E30A00A0E10610A0E190
S31580802D000C40950564409F150D6000EB000050E3F4
S31580802D105C009F050300000AD75F00EB000050E34C
S31580802D200500001A4C009FE5041095E50720A0E178
S31580802D300630A0E1931700EB050000EA0400A0E1CD
S31580802D40525F00EB004050E20300000A28009FE5B6
S31580802D508C1700EB8F5F00EBDDFFFFEA8D5F00EB6A
S31580802D600400A0E1FC84BDE831B6828057B68280BB
S31580802D702FB68280BAB58280DAB5828085B6828027
S31580802D80010052E3F7402DE90350A0E1030000CA19
S31580802D90B0009FE57B1700EB0000A0E3280000EAE7
S31580802DA0080093E504108DE21020A0E32A6F00EBE3
S31580802DB00060A0E10610A0E1040095E5432F00EBBA
S31580802DC0007050E280009F050600000A04009DE5A1
S31580802DD00030D0E5000053E30C00000A3A0053E34C
S31580802DE00300000A64009FE55F1700EB0100A0E303
S31580802DF0130000EA010080E20010A0E31020A0E327
S31580802E0004008DE5146F00EB0040A0E1000000EA2D
S31580802E100140A0E30700A0E10410A0E10B6200EB73
S31580802E20000050E30500000A041095E50620A0E125
S31580802E300430A0E118009FE5521700EBEAFFFFEA15
S31580802E40DC6400EBFE80BDE8F9B7828022B88280A0
S31580802E5057B682803EB88280020052E3F3442DE9E1
S31580802E600240A0E10350A0E1030000CAD4009FE5A0
S31580802E70441700EB0040A0E3300000EA080093E5A9
S31580802E8004108DE21020A0E3F36E00EB0070A0E1C9
S31580802E900710A0E1040095E50C2F00EB00A050E21E
S31580802EA0A4009F050600000A04009DE50030D0E559
S31580802EB0000053E30C00000A3A0053E30300000A43
S31580802EC088009FE5281700EB0140A0E31B0000EAFD
S31580802ED0010080E20010A0E31020A0E304008DE5CD
S31580802EE0DD6E00EB0060A0E1000000EA0160A0E3F7
S31580802EF00A00A0E10610A0E1D46100EB000050E357
S31580802F000500000A041095E50720A0E10630A0E1BF
S31580802F103C009FE51B1700EBEAFFFFEA040054E3C1
S31580802F200C0095052C009F15F86400EB000050E39B
S31580802F300040A0E10100000A1C009FE5111700EB0C
S31580802F400400A0E1FC84BDE869B8828022B88280D2
S31580802F5057B682809CB882802FB68280C5B88280A0
S31580802F60F0462DE9040052E31CD04DE20240A0E1F8
S31580802F700350A0E1020000CA40019FE5011700EBE3
S31580802F800B0000EA080093E514108DE21020A0E380
S31580802F90B16E00EB0070A0E10710A0E1040095E51A
S31580802FA0CA2E00EB00A050E20300001A10019FE5B4
S31580802FB0ED1600EB0100A0E33E0000EA14009DE5DB
S31580802FC00030D0E5000053E30900000A3A0053E35D
S31580802FD0F0009F15F5FFFF1A010080E20010A0E344
S31580802FE01020A0E314008DE59B6E00EB0060A0E1CD
S31580802FF0000000EA0160A0E30A00A0E10610A0E1DB
S31580803000926100EB00A050E20500000A041095E56D
S315808030100720A0E10630A0E1AC009FE5D91600EB41
S31580803020E3FFFFEA1020A0E30C0095E50A10A0E1FB
S31580803030896E00EB060054E30090A0E10A20A0117F
S315808030400400001A1020A0E3140095E50A10A0E180
S31580803050816E00EB0020A0E1100095E50910A0E1CB
S31580803060AE6400EB010070E30040A0E10600001A28
S31580803070101095E5042095E50730A0E14C009FE58A
S3158080308000608DE5BF1600EBC9FFFFEA0410A0E162
S315808030903C009FE5BB1600EB38109FE50420A0E13D
S315808030A008008DE2A67000EB2C009FE508108DE26B
S315808030B01A1100EB0000A0E31CD08DE2F086BDE8FB
S315808030C0D9B8828022B8828057B682801CB98280A5
S315808030D047B9828071B98280D2AE8280D6AE8280B4
S315808030E007402DE901C0A0E100E0A0E124109FE522
S315808030F024009FE50C008DE8011060E01C309FE580
S31580803100C111A0E1930101E00E20A0E10C30A0E185
S31580803110971500EB0E80BDE80000000000000000DF
S31580803120ABAAAAAA003CA0E1FF2C00E2203C83E166
S31580803130023483E1FF0800E2200483E11EFF2FE151
S315808031400030A0E30320D0E72E0052E30300001A6C
S31580803150033080E00100D3E5300040E21EFF2FE19E
S31580803160000052E30400000A013083E2080053E342
S31580803170F3FFFF1A0100A0E31EFF2FE10100A0E309
S315808031801EFF2FE1010052E3F0412DE90040A0E1CE
S315808031900160A0E10250A0E10E0000DA040093E510
S315808031A038109FE50B20A0E3047083E2281500EB9E
S315808031B0000050E30600000A0CC090E50610A0E1EE
S315808031C00400A0E1012045E20730A0E13CFF2FE129
S315808031D0F081BDE80400A0E1F041BDE84D1500EA2C
S315808031E0A4188380010052E310402DE90500001A5F
S315808031F0310200EB0010A0E14C009FE5611600EBE8
S315808032000040A0E30E0000EA040093E50A20A0E3D4
S315808032100010A0E3106E00EB0040A0E10410A0E156
S3158080322028009FE5571600EB0400A0E1250200EBFD
S31580803230004050E20200000A14009FE50410A0E1DD
S31580803240501600EB0400A0E11080BDE874BB82803C
S315808032508ABB8280A6BB828008402DE90C009FE5D0
S315808032600110A0E3923000EB0000A0E30880BDE867
S31580803270A0860100050052E3F3442DE90040A0E1D9
S315808032800350A0E10F00001A040093E50010A0E32C
S315808032901020A0E3F06D00EB0010A0E31020A0E3E7
S315808032A000A0A0E1080095E5EB6D00EB0070A0E141
S315808032B0080095E5A1FFFFEB030050E30060A0E1E5
S315808032C00300009A0400A0E108D08DE2F044BDE8B6
S315808032D0101500EA0010A0E31020A0E30C0095E50D
S315808032E0DD6D00EB0010A0E30040A0E11020A0E39C
S315808032F0100095E5D86D00EB0710A0E10030A0E1C5
S315808033000620A0E1FF000AE200408DE5F03000EB68
S31580803310000050E30200000A0C009FE5121600EBC5
S315808033200100A0E308D08DE2F084BDE8C7BB82802F
S3158080333010402DE93C009FE50B1600EB0040A0E392
S31580803340FF0004E2A63000EB000050E30200001A82
S3158080335024009FE50410A0E10A1600EB014084E278
S31580803360800054E3F5FFFF1A0A00A0E3F71500EB0F
S315808033700000A0E31080BDE8E0BB8280F6BB82803F
S31580803380F04E2DE90350A0E174319FE520D04DE2C7
S315808033900090D3E5900093E968319FE5020052E37F
S315808033A0083193E500B0A0E102A0A0E10C308DE564
S315808033B0110000DA016011E21800001A0610A0E1FF
S315808033C01020A0E3040095E5A36D00EB0610A0E134
S315808033D01020A0E3FF9000E2080095E59E6D00EB4B
S315808033E00040A0E1080095E554FFFFEB030050E321
S315808033F00070A0E10200009A0B00A0E1C51400EBEA
S315808034003D0000EA03005AE30400000A0C0095E5BB
S315808034100610A0E11020A0E38F6D00EB0C008DE5F7
S315808034200C509DE510A08DE2100055E30560A0B19B
S315808034301060A0A30900A0E10410A0E10720A0E10C
S315808034400A30A0E100608DE5A13000EB00B050E24B
S315808034500200000AB0009FE5C31500EB1C0000EA5D
S315808034600410A0E1A4009FE5C61500EB040000EAE5
S315808034700B10DAE798009FE5C21500EB014084E2E5
S3158080348001B08BE206005BE1F8FFFFBA84009FE51E
S31580803490B51500EB00B0A0E3090000EA0B10DAE76F
S315808034A0203041E25E0053E30200009A68009FE587
S315808034B0AD1500EB010000EA60009FE5B11500EBD9
S315808034C001B08BE206005BE1F3FFFFBA0A00A0E35E
S315808034D09E1500EB055066E0000055E3D1FFFFCADC
S315808034E01C309FE50C209DE50090C3E5900083E924
S315808034F010309FE50000A0E3082183E520D08DE28F
S31580803500F08EBDE8041E8980A4188380C7BB828024
S31580803510FCBB828002BC82803E058380531283807E
S315808035203CA78280F04E2DE9030053E318D04DE20C
S3158080353000C0A0E101B0A0E138A09DE51D00001A81
S31580803540A4319FE5019012E20C70D3E5105093E58B
S31580803550146093E50140A0131800001A00009AE5D4
S315808035600110A0E30CC08DE5E31400EB0910A0E107
S315808035701020A0E30040A0E104009AE5366D00EBC0
S315808035800910A0E10070A0E11020A0E308009AE570
S31580803590316D00EB0050A0E108009AE5E7FEFFEB75
S315808035A0030050E30060A0E10CC09DE5FF700792A8
S315808035B00200009A0C00A0E1561400EB480000EA55
S315808035C00510A0E124019FE56E1500EB0700A0E1C0
S315808035D00510A0E10620A0E114308DE200408DE543
S315808035E03B3000EB000050E30200000A00019FE5BB
S315808035F05D1500EB0C0000EA14009DE5C8FEFFEB2C
S31580803600010054E30010A0E114008DE5211CA00187
S31580803610E0009F050300000A020054E3D8009F055E
S31580803620D8009F152118A001561500EBD0009FE584
S315808036304C2600EB000050E30400001A00005BE398
S3158080364004508510000054E3DCFFFF1A1F0000EA57
S31580803650B0009FE510108DE21020A0E3FE6C00EB99
S31580803660010054E314008DE5000CA0010200000ADD
S31580803670020054E30100001A0008A0E114008DE5E1
S3158080368014009DE5A6FEFFEB10209DE574309FE536
S3158080369014008DE5030052E10C00000A0700A0E1CA
S315808036A00510A0E10620A0E114308DE200408DE572
S315808036B09C3000EB000050E30100000A48009FE543
S315808036C0291500EB00005BE304508510BBFFFFEA01
S315808036D014309FE50000A0E30C70C3E5105083E5AD
S315808036E0146083E518D08DE2F08EBDE8041E898053
S315808036F008BC82800FBC828029BC828030BC82805C
S3158080370037BC82803EBC82805022898042BC828047
S3158080371007402DE902C0A0E101E0A0E100308DE5FF
S315808037200010A0E30E20A0E10C30A0E17CFFFFEB2F
S315808037300E80BDE807402DE902C0A0E101E0A0E14E
S3158080374000308DE50110A0E30E20A0E10C30A0E1D1
S3158080375073FFFFEB0E80BDE8F0462DE903A0A0E164
S31580803760043042E2010053E314D04DE20060A0E1D0
S315808037700240A0E10F00008A0010A0E31020A0E3A1
S3158080378004009AE5B46C00EB0010A0E31020A0E35F
S31580803790FF9000E208009AE5AF6C00EB0070A0E134
S315808037A008009AE565FEFFEB030050E30050A0E138
S315808037B00200009A0600A0E1D61300EB200000EA02
S315808037C00C009AE50010A0E31020A0E3A26C00EB29
S315808037D0050054E30F00CDE50100A0130300001A15
S315808037E010009AE50010A0E31020A0E39A6C00EB0D
S315808037F00040A0E101A0A0E30E0000EA0900A0E15C
S315808038000710A0E10520A0E10F308DE200A08DE5B4
S31580803810443000EB000050E3016087E20100000A3B
S3158080382024009FE5D01400EB20009FE53F6B00EBE2
S31580803830014044E20670A0E1000054E3EEFFFFCA37
S315808038400000A0E314D08DE2F086BDE842BC828081
S31580803850F82A0000F0462DE9020052E31CD04DE2A2
S315808038600060A0E10250A0E10370A0E10F0000DAC1
S31580803870040093E50010A0E31020A0E3766C00EBB3
S315808038800010A0E31020A0E3FF9000E2080097E5F7
S31580803890716C00EB00A0A0E1080097E527FEFFEBA6
S315808038A0030050E30040A0E10300009A0600A0E1F7
S315808038B0981300EB1CD08DE2F086BDE80C0097E56E
S315808038C00010A0E31020A0E3636C00EB100050E3AF
S315808038D00060A0311060A023030055E3FA5FA00347
S315808038E00400000A100097E50010A0E30A20A0E3F8
S315808038F0596C00EB0050A0E10900A0E10A10A0E11C
S315808039000420A0E108308DE200608DE5702F00EB09
S31580803910000050E30100000A0C009FE5921400EB42
S315808039200500A0E1016B00EBF2FFFFEAC7BB828056
S31580803930010052E310402DE90500001A833000EB28
S315808039400010A0E14C009FE58E1400EB0040A0E3C0
S315808039500E0000EA040093E50A20A0E30010A0E3AD
S315808039603D6C00EB0040A0E10410A0E128009FE5BB
S31580803970841400EB0400A0E1783000EB004050E234
S315808039800200000A14009FE50410A0E17D1400EB7C
S315808039900400A0E11080BDE85BBC82806EBC828022
S315808039A081BC8280030052E3FF4E2DE90040A0E176
S315808039B00360A0E10F0000DA040093E50010A0E325
S315808039C01020A0E3246C00EB0010A0E31020A0E37D
S315808039D0FFB000E2080096E51F6C00EB0050A0E186
S315808039E0080096E5D5FDFFEB030050E300A0A0E13B
S315808039F00200009A0400A0E1461300EB280000EA4A
S31580803A000C0096E50010A0E31020A0E3126C00EB7A
S31580803A10012045E20060A0E10510A0E188009FE5D5
S31580803A20062082E00040A0E3561400EB0470A0E1FB
S31580803A300190A0E30E0000EA0510A0E10A20A0E133
S31580803A400F308DE20B00A0E100908DE5202F00EBFA
S31580803A500F108DE2000050E30120A0E30700A0E173
S31580803A6001408412696300EB015085E20070A0E119
S31580803A70016046E2000056E3EEFFFFCA000054E391
S31580803A800300000A24009FE5371400EB0000A0E3C2
S31580803A90030000EA18009FE50710A0E1391400EBC7
S31580803AA00400A0E110D08DE2F08EBDE8A3BC8280B8
S31580803AB010BC828028A782801EFF2FE100009FE5B0
S31580803AC01EFF2FE1A08601000C309FE5030050E1A8
S31580803AD00000E0130000A0031EFF2FE1A0860100F6
S31580803AE00020D0E52A0052E31EFF2F11010080E2DC
S31580803AF00010A0E31020A0E3D76B00EA10402DE9E8
S31580803B000020D0E50140A0E12A0052E30D00001A92
S31580803B10010080E20010A0E31020A0E3CE6B00EBD2
S31580803B20020054E3B000D0011080BD08040054E345
S31580803B30000090051080BD08010054E30000D00588
S31580803B400400001A1080BDE80010A0E31020A0E3D6
S31580803B50C16B00EB000000EA0000A0E38441A0E195
S31580803B600030E0E31304C0E11080BDE8F34E2DE918
S31580803B700190A0E104008DE502B0A0E10350A0E1B0
S31580803B804F6900EB0040A0E30070A0E16C619FE587
S31580803B90520000EA04009DE5041096E70720A0E124
S31580803BA02B6900EB000050E34B00001A040096E777
S31580803BB0436900EB000057E14700001A000055E397
S31580803BC004609AE51D00001A0900A0E1C3FFFFEB9F
S31580803BD00040A0E10B00A0E1C0FFFFEB0010A0E158
S31580803BE00400A0E1106900EB050056E306F19F977B
S31580803BF0400000EA0C3C8080183C8080383C808085
S31580803C00243C80802C3C8080343C8080010070E223
S31580803C100000A033380000EA000050E20100A013C3
S31580803C20350000EA000050E3200000EA000050E3FF
S31580803C30220000EA0000E0E1A00FA0E12E0000EA69
S31580803C400510A0E10900A0E1ABFFFFEB0510A0E124
S31580803C500040A0E10B00A0E1A7FFFFEB050056E343
S31580803C6006F19F97230000EA803C8080903C80808C
S31580803C709C3C8080AC3C8080BC3C8080CC3C80807E
S31580803C80043060E0000073E20300A0E01A0000EADE
S31580803C90000054E00100A013170000EA000054E100
S31580803CA00000A0A30100A0B3130000EA000054E145
S31580803CB00000A0D30100A0C30F0000EA000054E1F9
S31580803CC00000A0C30100A0D30B0000EA000054E1ED
S31580803CD00000A0B30100A0A3070000EA084084E2A8
S31580803CE0680054E304A086E0A9FFFF1A10009FE5D0
S31580803CF004109DE5A31300EB0000A0E3FC8EBDE8D5
S31580803D00D07382808EBF8280040052E310402DE97A
S31580803D100340A0E10100000A1040BDE87D1200EA60
S31580803D20000093E50210A0E1F31200EB022080E20E
S31580803D300030A0E1060052E302F19F97100000EA6E
S31580803D406C3D8080843D8080843D80805C3D8080A9
S31580803D505C3D8080843D80805C3D8080080094E5E9
S31580803D60041094E50C2094E5030000EA080094E5AD
S31580803D70041094E50C2094E50030A0E37AFFFFEBF5
S31580803D80020000EA10009FE5771300EB0000A0E3B5
S31580803D90010070E20000A0331080BDE8A5BF82805C
S31580803DA010309FE50020A0E3002083E5082093E57E
S31580803DB0042083E51EFF2FE11C1E898014309FE539
S31580803DC0002093E5000052E3042093050100C2049D
S31580803DD0042083051EFF2FE11C1E8980F0402DE97B
S31580803DE043DE4DE204D04DE2427E8DE20C7087E266
S31580803DF00230A0E30060A0E10710A0E1420E8DE2D0
S31580803E0024348DE50A2A00EB005050E20540A0015B
S31580803E100500000A0B0000EA060085E00D10A0E18F
S31580803E20024084E0025085E0516900EB0720A0E1E2
S31580803E300D00A0E1011BA0E34F2A00EB002050E299
S31580803E40F4FFFFCA050000EA2C049DE5172B00EBE2
S31580803E500010A0E164009FE54A1300EB0040A0E3D8
S31580803E60420E8DE20C0080E2D72A00EB0000A0E3B0
S31580803E704C109FE5E82A00EB0600A0E10410A0E143
S31580803E8007F2FFEB0410A0E10420A0E134009FE557
S31580803E903C1300EB0420A0E1010B8DE228109FE506
S31580803EA0276D00EB011B8DE220009FE59B0D00EBCB
S31580803EB00600A0E134D08DE201DB8DE2F080BDE8A2
S31580803EC085E18280D43E808041C082802CB682808B
S31580803ED0D6AE828010402DE9161300EB000050E3A9
S31580803EE00100000A1040BDE80C1300EA0000E0E300
S31580803EF01080BDE8F04E2DE90050A0E30DDD4DE247
S31580803F000090A0E10570A0E10040E0E3B8619FE504
S31580803F10B8B19FE5420000EA10008DE2CF1F8DE2A6
S31580803F20CE2F8DE2863F8DE2C12700EB000050E3E5
S31580803F30620000BA010040E2080050E300F19F97DA
S31580803F402C0000EA683F8080683F8080683F808060
S31580803F50F83F8080F83F8080F83F8080A03F8080D7
S31580803F60A03F8080A03F808038A39DE5861F8DE21C
S31580803F700AA089E00A00A0E13C239DE5FC6800EB6D
S31580803F803C339DE50A0054E10A40A021013043E29A
S31580803F900AA083E00A0057E10A70A031150000EA82
S31580803FA0015087E2055064E024019FE55F6900EB5C
S31580803FB00530A0E10720A0E10410A0E114019FE56F
S31580803FC000508DE5EF1200EB0400A0E10510A0E122
S31580803FD0B3F1FFEB00119FE50520A0E1C60F8DE2CE
S31580803FE0D76C00EBF4009FE5C61F8DE24B0D00EB8E
S31580803FF038039DE5320000EA003096E5000053E301
S315808040000700001A015085E20500A0E16410A0E354
S31580804010928C00EB000051E30100001A2E00A0E391
S31580804020CA1200EB853F8DE210A08DE20C308DE5C3
S31580804030BA1200EB002096E5FF3000E2000052E3E2
S315808040400300000A0300A0E108308DE5BF1200EB73
S3158080405008309DE5030053E31800000A0200008AB9
S31580804060000053E31500000A030000EA0A0053E3C8
S315808040700C00000A0D0053E30A00000A0130CAE4EE
S31580804080503098E5043093E50B0053E10200000A36
S31580804090D91200EB000050E30800001A0C309DE531
S315808040A003005AE1E1FFFF1A0030A0E30030CAE541
S315808040B010308DE20AA063E000005AE395FFFFAAE4
S315808040C00000E0E30DDD8DE2F08EBDE8B0198380DF
S315808040D0208B80801027000069C08280D2AE82804B
S315808040E0D6AE828038402DE9B8009FE50350A0E1A6
S315808040F00240A0E1EA0D00EB000050E3A8309FE586
S315808041000300000A0020D0E5310052E30120A0039D
S315808041100000000A0020A0E3020054E3002083E52B
S315808041200040A0130400001A040095E50010A0E367
S315808041301020A0E3916A00EB0040A0E16C009FE52F
S31580804140901200EB0400A0E169FFFFEB6440A0E3DE
S315808041500050A0E1771200EB000050E30000000AD7
S315808041606E1200EBFA0FA0E3F06800EB014054E298
S31580804170F7FFFF1A010075E30300001A30009FE500
S31580804180801200EB0100A0E33880BDE80510A0E135
S3158080419020009FE57B1200EB1C309FE50400A0E1A8
S315808041A0005083E53880BDE8CEC08280B019838098
S315808041B0D9C08280FDC082801BC18280B01A8380F4
S315808041C038402DE91C509FE50C4095E5020000EAB9
S315808041D01000D5E55D1200EB014044E2000054E317
S315808041E0FAFFFFCA3880BDE81C1E8980603000E2F5
S315808041F0400053E3BF0000021EFF2F017F3000E2A4
S315808042003F0053E3400080031EFF2FE10030A0E390
S31580804210000000EA023083E00120D0E4000052E30F
S31580804220FBFFFF1A032CA0E1223F83E03F0003E2DD
S315808042301EFF2FE110402DE90040A0E1DFFFFFEB5C
S31580804240000000EA411200EB0100D4E4000050E354
S31580804250FBFFFF1A1080BDE870402DE94C409FE53A
S315808042600130A0E31130C4E5200080E2223083E271
S315808042701230C4E51300C4E5363083E20050A0E3F3
S31580804280120084E21430C4E51550C4E5DEFFFFEBEE
S315808042902930D4E5200080E21500C4E5110084E24F
S315808042A01630C4E51750C4E57040BDE8E0FFFFEAEC
S315808042B01C1E898070402DE94C409FE50130A0E32B
S315808042C01130C4E5200080E2223083E21230C4E5DA
S315808042D01300C4E52B3083E20050A0E3120084E211
S315808042E01430C4E51550C4E5C7FFFFEB2930D4E50B
S315808042F0200080E21500C4E5110084E21630C4E512
S315808043001750C4E57040BDE8C9FFFFEA1C1E89804E
S3158080431008402DE910309FE50020A0E32C2083E51E
S31580804320303093E533FF2FE10880BDE81C1E8980FD
S3158080433018309FE52C2093E5342083E5002093E593
S31580804340382083E5042093E53C2083E51EFF2FE11A
S315808043501C1E898018309FE5342093E52C2083E5C8
S31580804360382093E5002083E53C2093E5042083E58F
S315808043701EFF2FE11C1E898010402DE940409FE55D
S315808043802C2094E5000052E30400000A96FFFFEBA0
S31580804390403094E533FF2FE10030A0E3030000EA4C
S315808043A04420D4E5000052E10200001A0130A0E3E7
S315808043B02C3084E51080BDE8403094E533FF2FE1D2
S315808043C01080BDE81C1E8980B8319FE50D20A0E352
S315808043D0F0412DE92920C3E50020A0E3481093E52C
S315808043E00C2083E51020C3E5232082E24420C3E5A8
S315808043F05F2083E2020051E15E20830248208305AC
S3158080440080419FE5485093E54C2084E2055062E0E8
S31580804410000055E30070A0E10360A0D3400000DA7D
S315808044207E30A0E3015055E21530C4E50460A003D8
S315808044303B00000A2130A0E3015055E21630C4E5E6
S315808044400560A0033600000A4E30D4E5015055E25F
S31580804450203043E2FF3003E20C3084E52030A0E355
S315808044601730C4E50660A0032D00000A4F00D4E50E
S315808044705DFFFFEB015045E24030A0E3000055E34D
S315808044801000C4E51830C4E50760A0032400000A44
S315808044905030D4E5015055E2203043E22930C4E5DE
S315808044A02D30A0E31930C4E50860A0031C00000A03
S315808044B05130D4E5015055E24430C4E52330A0E341
S315808044C01A30C4E50960A0031500000A2B3083E208
S315808044D0015055E21B30C4E50A60A0031000000A33
S315808044E03120A0E3015055E21C20C4E50B60A00377
S315808044F00B00000A010055E31D30C4E50C60A00363
S315808045000700000A2220A0E31E20C4E52020A0E325
S315808045101F20C4E55E2082E22020C4E52120C4E5F8
S315808045201060A0E35C409FE50130A0E31130C4E5D4
S31580804530207087E2203086E2016086E21230C4E510
S315808045401370C4E55930A0E3067084E00050A0E380
S315808045501430C4E5120084E21150C7E52AFFFFEBD0
S31580804560016086E2200080E22930D4E51100C7E52B
S31580804570066084E0110084E21130C6E51250C6E5FB
S31580804580F041BDE82AFFFFEA1C1E8980F04E2DE9A6
S3158080459004049FE528D04DE20250A0E10370A0E19B
S315808045A0BF0C00EB000050E38144A0030300000AA7
S315808045B00010A0E31020A0E3276900EB0040A0E173
S315808045C0010055E3086098E5EB0000DA040097E582
S315808045D00010A0E31020A0E31F6900EB030055E3E1
S315808045E00040A0E1E400001A080097E50010A0E3EF
S315808045F00A20A0E3186900EB005050E2DE00000A32
S31580804600060055E10B00000A0510A0E18C039FE5AA
S315808046105C1100EB88039FE5C46700EB085088E552
S31580804620C15400EB78039FE5C06700EB3B1100EB3C
S315808046300D0050E3FCFFFF1A000097E564139FE5A9
S31580804640796600EB00A050E20600001A0410A0E113
S315808046500520A0E150039FE54A1100EB0400A0E10C
S31580804660DDFDFFEBB30000EA0520A0E10410A0E1A8
S3158080467038039FE5431100EB34A39FE534339FE5F0
S315808046800070A0E330308AE52C339FE508408AE5C8
S3158080469040308AE50D30A0E32930CAE5163083E2C2
S315808046A04430CAE50C708AE51070CAE517FFFFEBC7
S315808046B01EFFFFEB00B0E0E304508DE50450A0E1DF
S315808046C0F8129FE548108AE5141100EB010050E34B
S315808046D00200000A030050E3FAFFFF1A6F0000EA27
S315808046E00E1100EBE00010E3FF4000E25800000A64
S315808046F00A1100EBE00010E3FF9000E25400000A0C
S31580804700207049E2FF7007E20B0057E10100001A32
S315808047100FFFFFEB000000EA04FFFFEBFF1000EBCA
S31580804720E00010E3FFB000E24800000A049089E0D0
S31580804730204044E2FF4004E2024044E2020074E307
S315808047400B9089E03100001AF41000EBE00010E352
S31580804750FF4000E23D00000AF01000EBE00010E32D
S31580804760FF3000E23900000A00308DE5EB1000EB67
S31580804770E00010E3FF2000E200309DE53300000A70
S31580804780099084E0039089E0091CA0E1211F89E0DB
S315808047903F1001E2201081E2010052E12B00001AD5
S315808047A0203043E2204044E2FF3003E2FF4004E2CF
S315808047B05F10A0E3913424E0099082E0130000EA40
S315808047C0D61000EBE00010E3FF2000E21F00000A15
S315808047D044005BE3029089E0014044E20200001AD3
S315808047E00200A0E1E3FEFFEB080000EA53005BE3F2
S315808047F00600001A48109AE50130A0E10120C3E442
S31580804800BC219FE5020053E10130A02148308AE532
S31580804810010054E3E9FFFFCAC01000EBE00010E31B
S31580804820FF3000E20900000A092CA0E1229F89E07E
S315808048303F9009E2209089E2090053E10300001A43
S31580804840B61000EBFF0000E20D0050E30600000A80
S3158080485007B0A0E1BEFEFFEB0700A0E194FEFFEB70
S315808048600730A0E10B70A0E1090000EA53005BE30A
S315808048700200001A0700A0E1D2FEFFEB030000EAE7
S315808048800700A0E173FEFFEB42005BE33C00000A79
S315808048900730A0E107B0A0E10370A0E187FFFFEABF
S315808048A00540A0E104509DE50070A0E364A0A0E3EC
S315808048B0A01000EB000050E30000000A971000EB88
S315808048C0FA0FA0E3196700EB01A05AE2F7FFFF1AFF
S315808048D00710A0E10400A0E171EFFFEB0710A0E1D3
S315808048E00720A0E1DC009FE5A61000EB0720A0E171
S315808048F0D4109FE508008DE2916A00EBCC009FE59D
S3158080490008108DE2050B00EB010074E3C0709FE513
S315808049100400001A00A087E5B8009FE5991000EB97
S3158080492001A0A0E3030000EAAC009FE50410A0E1AB
S31580804930941000EB004087E5060055E10B00000AE5
S315808049400610A0E194009FE58E1000EB50009FE555
S31580804950F66600EB086088E5F35300EB40009FE540
S31580804960F26600EB6D1000EB1B0050E3FCFFFF1A34
S315808049700A00A0E128D08DE2F08EBDE80650A0E145
S315808049802CFFFFEA28309FE50540A0E1820093E96D
S31580804990077041E004509DE5C3FFFFEA9FA58280B2
S315808049A039C1828050C300006BC1828071C1828090
S315808049B0B0C182801C1E8980A03D8080BC3D808065
S315808049C0681E89807C1E898041C082802CB68280C8
S315808049D0D6AE8280B01A8380EFC182801BC18280EE
S315808049E014C28280020052E3F0442DE90270A0E175
S315808049F00340A0E1010000CAF044BDE8450F00EA0B
S31580804A00040093E50010A0E31020A0E3126800EB79
S31580804A106C309FE50010A0E3005093E51020A0E362
S31580804A20055080E0080094E50B6800EB0060A0E10B
S31580804A300510A0E10620A0E10138A0E30000A0E3F4
S31580804A40775F00EB012046E200A0A0E10510A0E19F
S31580804A5030009FE5052082E00A30A0E1491000EB16
S31580804A60030057E30400000A0C0094E50010A0E3DD
S31580804A701020A0E3F86700EB00A080E50000A0E3AB
S31580804A80F084BDE87C1E898077C38280010052E3F2
S31580804A9010402DE928409FE5040000DA040093E564
S31580804AA00010A0E31020A0E3EB6700EB000084E514
S31580804AB0001094E50C009FE5321000EB0000A0E327
S31580804AC01080BDE87C1E89809CC38280010052E371
S31580804AD0F34E2DE90250A0E10360A0E1560000DA92
S31580804AE0040093E50010A0E31020A0E3DA6700EBD2
S31580804AF0020055E300008DE55100000A080096E526
S31580804B000010A0E31020A0E3D36700EB030055E3F9
S31580804B1004008DE54C00000A0C0096E50010A0E3A9
S31580804B201020A0E3CC6700EB040055E30040A0E1B1
S31580804B3000B0A0030400000A100096E50010A0E3F0
S31580804B401020A0E3C46700EB00B0A0E10150A0E391
S31580804B5005A0A0E10090A0E3271000EB000050E3C1
S31580804B602500001A00005BE30B005A11060000DA6C
S31580804B70E0009FE501104AE20920A0E1011000EBE8
S31580804B80000059E20100A0132A0000EAC8209FE5B0
S31580804B90C8009FE50410A0E1FA0F00EB0420A0E195
S31580804BA000309DE5010000EA042083E4052082E050
S31580804BB004109DE5010053E1FAFFFF3AA0009FE5CE
S31580804BC0E90F00EB0470A0E100609DE5100000EA2B
S31580804BD0002096E5070052E10B00000A0610A0E14E
S31580804BE00730A0E17C009FE5E60F00EB021000EB2A
S31580804BF0000050E3019089020300000A0A00A0E3C6
S31580804C00D20F00EB0100A0E30A0000EA057087E07E
S31580804C10046086E204309DE5030056E1EBFFFF3AAF
S31580804C20000054E3004064B20440E0A101A08AE21F
S31580804C30005065E2C7FFFFEAFC8EBDE82113A0E342
S31580804C4000108DE520309FE504308DE50040A0E39F
S31580804C5004B0A0E1BCFFFFEAB3C3828004C4828033
S31580804C60DCC3828005C4828010C4828000008084F8
S31580804C70020052E370402DE90360A0E1010000CA82
S31580804C807040BDE8A30E00EA000093E50410A0E31F
S31580804C90190F00EB005050E2300000BA0010A0E3FC
S31580804CA01020A0E3040096E56B6700EB0010A0E37C
S31580804CB00040A0E11020A0E3080096E5666700EB3F
S31580804CC0010050E30900001A040055E30100001A30
S31580804CD0003094E5FDFFFFEA020055E30100001AEB
S31580804CE0B030D4E1FDFFFFEA0030D4E5FDFFFFEA76
S31580804CF0040055E30700001A0420A0E10030A0E1FB
S31580804D00010000EA041092E4013043E2000053E39C
S31580804D10F8FFFF0AFAFFFFEA020055E30700001A50
S31580804D200420A0E10030A0E1010000EAB210D2E0C8
S31580804D30013043E2000053E3F8FFFF0AFAFFFFEAFF
S31580804D400420A0E10030A0E1010000EA0110D2E455
S31580804D50013043E2000053E3F8FFFF0AFAFFFFEADF
S31580804D600100A0E37080BDE8040052E3F0472DE99E
S31580804D700350A0E10100000AF047BDE8650E00EA15
S31580804D80000093E50210A0E1DB0E00EB004050E2CC
S31580804D90260000BA0010A0E31020A0E3040095E569
S31580804DA02D6700EB8C609FE500A0A0E10010A0E35A
S31580804DB01020A0E3080095E5007096E5266700EB55
S31580804DC00010A0E30090A0E11020A0E30C0095E500
S31580804DD0006096E5206700EB000050E307708A103C
S31580804DE0066089100300001A4C009FE55E0F00EB79
S31580804DF00100A0E3F087BDE8040054E30030970506
S31580804E00003086050400000A020054E3B030D701E2
S31580804E100030D715B030C6010030C615010050E28B
S31580804E20047087E0046086E0F2FFFF1AF087BDE8B1
S31580804E300100A0E3F087BDE87C1E898042C4828021
S31580804E40040052E3F7402DE90360A0E10200000AE6
S31580804E500CD08DE2F040BDE82E0E00EA000093E58E
S31580804E600210A0E1A40E00EB004050E20150A0B3F6
S31580804E70490000BA040096E50010A0E31020A0E364
S31580804E80F56600EB1C519FE50010A0E3007095E568
S31580804E901020A0E3077080E0080096E5EE6600EBC0
S31580804EA0005095E50010A0E3055080E01020A0E337
S31580804EB00C0096E5E86600EB0060A0E3230000EA3C
S31580804EC0040054E30A00001A002097E5003095E537
S31580804ED0030052E11A00000A00308DE5C8009FE584
S31580804EE00530A0E10710A0E1260F00EB0150A0E37A
S31580804EF0210000EA020054E30600001AB020D7E1C0
S31580804F00B030D5E1030052E10D00000A00308DE516
S31580804F1098009FE5050000EA0020D7E50030D5E5BA
S31580804F20030052E10600000A84009FE500308DE58B
S31580804F300530A0E10710A0E1120F00EB0150A0E33D
S31580804F40070000EA016086E2047087E0045085E00D
S31580804F50060050E1D9FFFF1A040054E30500000AD9
S31580804F600050A0E34C309FE5020054E348209FE543
S31580804F700320A001010000EA0050A0E33C209FE5C9
S31580804F803CC09FE5010056E338309FE538009FE5B9
S31580804F900610A0E10C30A011FA0E00EB0500A0E10E
S31580804FA00CD08DE2F080BDE87C1E898061C48280D1
S31580804FB099C48280D7C4828058C4828053C48280B8
S31580804FC05CC482808EED828004C482800DC582809E
S31580804FD0F0442DE90360A0E1033042E2010053E30F
S31580804FE00240A0E10100009AF044BDE8C90D00EAC4
S31580804FF0000096E50410A0E33F0E00EB007050E2BF
S315808050001E0000DA0010A0E31020A0E3040096E5DD
S31580805010916600EB6C309FE50010A0E3005093E52D
S315808050201020A0E3055080E0080096E58A6600EBB4
S31580805030040054E300A0A0E10100A0130C00001A34
S315808050400C0096E50010A0E31020A0E3826600EBBA
S31580805050070000EA040057E300A085050200000AE5
S31580805060020057E3B0A0C50100A0C515075085E0B2
S31580805070010040E2000050E3F5FFFF1AF084BDE8AE
S315808050800100A0E3F084BDE87C1E8980F7462DE987
S31580805090020053E30140A0E128A09DE50100000ABB
S315808050A09C0D00EB3F0000EA0C719FE5019012E2B7
S315808050B0600097E90B00001A00009AE50410A0E3CF
S315808050C00D0E00EB006050E20100A0B3350000BAFF
S315808050D004009AE50910A0E11020A0E35E6600EB4B
S315808050E0005097E5055080E0007066E20510A0E1EB
S315808050F0C8009FE5A30E00EB040056E3C0009F0521
S31580805100001095050400000A020056E3B4009F054E
S31580805110B010D501B0009F150010D515990E00EB03
S31580805120A8009FE58F1F00EB000050E30500000A72
S31580805130010050E30A00001A94309FE50030D3E5E1
S315808051402D0053E30600001A000054E3E6FFFF0AB1
S31580805150000050E30630A0010730A011035085E09F
S31580805160E1FFFFEA1020A0E364009FE504108DE252
S31580805170396600EB04209DE554309FE5030052E1BB
S315808051800900000A040056E3000085050200000A33
S31580805190020056E3B000C5010000C515000054E347
S315808051A006508510D0FFFFEAFE86BDE808309FE571
S315808051B00000A0E3600083E9FAFFFFEA7C1E898015
S315808051C008BC828093F382802EC5828002BC8280D6
S315808051D03EBC82805022898007402DE902C0A0E1B2
S315808051E001E0A0E100308DE50010A0E30E20A0E173
S315808051F00C30A0E1A4FFFFEB0E80BDE807402DE9CF
S3158080520002C0A0E101E0A0E100308DE50110A0E3BD
S315808052100E20A0E10C30A0E19BFFFFEB0E80BDE865
S31580805220F34E2DE9C4A09FE50370A0E1C0309FE5D1
S31580805230010052E302B0A0E10C609AE510409AE545
S31580805240005093E5020000CA08D08DE2F04EBDE89A
S31580805250300D00EA019011E21200001A000097E5F5
S315808052600410A0E3A40D00EB004050E20100A0B33F
S315808052701C0000BA040097E50910A0E11020A0E385
S31580805280F56500EB00609AE502005BE3066080E0EE
S315808052900400000A080097E50910A0E11020A0E329
S315808052A0ED6500EB0050A0E10410A0E11000A0E3C2
S315808052B0A08700EB0610A0E100008DE50600A0E146
S315808052C0956426E00420A0E10530A0E1AB5D00EB8B
S315808052D018309FE518209FE50C6083E5005082E5B5
S315808052E0104083E50000A0E308D08DE2F08EBDE813
S315808052F07C1E8980B4198380F0412DE90050A0E11D
S315808053000000A0E30260A0E10370A0E151EDFFEB15
S31580805310020056E30040A0E10200000A0500A0E1F9
S31580805320F041BDE8FB0C00EA040097E50010A0E39D
S315808053300A20A0E3C86500EBFA5FA0E3900505E04C
S31580805340040000EA2C0E00EB000050E30700001AF0
S31580805350640080E2756400EB0400A0E13DEDFFEB24
S31580805360050050E1F6FFFF3A0000A0E3F081BDE83A
S315808053700000E0E3F081BDE8010052E3F34E2DE9C1
S3158080538000A0A0E10270A0E10340A0E1EE0000DA77
S31580805390C0539FE5003095E5000053E3050000AAE1
S315808053A0782F00EB000050E30030A0C3003085C525
S315808053B0A4039FD5270000DA040094E59C139FE51B
S315808053C0196300EB005050E20900001A84439FE580
S315808053D0000094E54A2A00EB003050E20F00000A74
S315808053E0345083E51E2F00EB005050E20150A0130D
S315808053F0D10000EA040094E564139FE50420A0E3CD
S31580805400136300EB005050E21400001A44439FE57A
S31580805410000094E53A2A00EB000050E30200001A6F
S3158080542040039FE5001094E5920000EA0C2F00EB84
S31580805430000094E5052F00EB003050E20400000A5E
S315808054400B30D3E5FF0053E30100000A4E2600EBC4
S31580805450B90000EA10039FE5C30D00EB860000EAE1
S31580805460040094E504139FE5EF6200EB005050E260
S315808054700200001A0A0080E2292F00EBAE0000EAC3
S31580805480040094E5E8129FE5E76200EB005050E265
S315808054904800001A020057E3B8329F050040930502
S315808054A00600000A030057E30600001A080094E508
S315808054B00510A0E10A20A0E3676500EB0040A0E12B
S315808054C00070E0E3100000EA040057E39D00001AB4
S315808054D00510A0E10A20A0E3080094E55E6500EB54
S315808054E00510A0E10060A0E10A20A0E30C0094E50D
